{
  "contractName": "PKToken",
  "abi": [
    {
      "anonymous": false,
      "inputs": [
        {
          "indexed": false,
          "internalType": "address",
          "name": "from",
          "type": "address"
        },
        {
          "indexed": false,
          "internalType": "address",
          "name": "to",
          "type": "address"
        },
        {
          "indexed": false,
          "internalType": "uint256",
          "name": "tokenID",
          "type": "uint256"
        }
      ],
      "name": "Gee",
      "type": "event"
    },
    {
      "anonymous": false,
      "inputs": [
        {
          "indexed": false,
          "internalType": "uint256",
          "name": "tokenID",
          "type": "uint256"
        }
      ],
      "name": "Log",
      "type": "event"
    },
    {
      "constant": false,
      "inputs": [
        {
          "internalType": "address",
          "name": "to",
          "type": "address"
        }
      ],
      "name": "gee",
      "outputs": [
        {
          "internalType": "bool",
          "name": "",
          "type": "bool"
        }
      ],
      "payable": false,
      "stateMutability": "nonpayable",
      "type": "function"
    },
    {
      "constant": true,
      "inputs": [
        {
          "internalType": "address",
          "name": "owner",
          "type": "address"
        }
      ],
      "name": "balanceOf",
      "outputs": [
        {
          "internalType": "uint256",
          "name": "",
          "type": "uint256"
        }
      ],
      "payable": false,
      "stateMutability": "view",
      "type": "function"
    },
    {
      "constant": true,
      "inputs": [
        {
          "internalType": "uint256",
          "name": "tokenID",
          "type": "uint256"
        }
      ],
      "name": "ownerOf",
      "outputs": [
        {
          "internalType": "address",
          "name": "",
          "type": "address"
        }
      ],
      "payable": false,
      "stateMutability": "view",
      "type": "function"
    },
    {
      "constant": true,
      "inputs": [],
      "name": "name",
      "outputs": [
        {
          "internalType": "string",
          "name": "",
          "type": "string"
        }
      ],
      "payable": false,
      "stateMutability": "view",
      "type": "function"
    },
    {
      "constant": true,
      "inputs": [],
      "name": "symbol",
      "outputs": [
        {
          "internalType": "string",
          "name": "",
          "type": "string"
        }
      ],
      "payable": false,
      "stateMutability": "view",
      "type": "function"
    },
    {
      "constant": true,
      "inputs": [
        {
          "internalType": "uint256",
          "name": "tokenID",
          "type": "uint256"
        }
      ],
      "name": "tokenData",
      "outputs": [
        {
          "components": [
            {
              "internalType": "uint256",
              "name": "id",
              "type": "uint256"
            },
            {
              "internalType": "uint256",
              "name": "timestamp",
              "type": "uint256"
            },
            {
              "internalType": "address",
              "name": "from",
              "type": "address"
            },
            {
              "internalType": "address",
              "name": "to",
              "type": "address"
            }
          ],
          "internalType": "struct PKToken.PKData",
          "name": "",
          "type": "tuple"
        }
      ],
      "payable": false,
      "stateMutability": "view",
      "type": "function"
    },
    {
      "constant": true,
      "inputs": [
        {
          "internalType": "address",
          "name": "owner",
          "type": "address"
        }
      ],
      "name": "ownersTokens",
      "outputs": [
        {
          "components": [
            {
              "internalType": "uint256",
              "name": "id",
              "type": "uint256"
            },
            {
              "internalType": "uint256",
              "name": "timestamp",
              "type": "uint256"
            },
            {
              "internalType": "address",
              "name": "from",
              "type": "address"
            },
            {
              "internalType": "address",
              "name": "to",
              "type": "address"
            }
          ],
          "internalType": "struct PKToken.PKData[]",
          "name": "",
          "type": "tuple[]"
        }
      ],
      "payable": false,
      "stateMutability": "view",
      "type": "function"
    },
    {
      "constant": true,
      "inputs": [],
      "name": "last100",
      "outputs": [
        {
          "components": [
            {
              "internalType": "uint256",
              "name": "id",
              "type": "uint256"
            },
            {
              "internalType": "uint256",
              "name": "timestamp",
              "type": "uint256"
            },
            {
              "internalType": "address",
              "name": "from",
              "type": "address"
            },
            {
              "internalType": "address",
              "name": "to",
              "type": "address"
            }
          ],
          "internalType": "struct PKToken.PKData[]",
          "name": "",
          "type": "tuple[]"
        }
      ],
      "payable": false,
      "stateMutability": "view",
      "type": "function"
    }
  ],
  "bytecode": "0x60806040526040518060400160405280600881526020017f506f65734b6c61700000000000000000000000000000000000000000000000008152506000908051906020019062000051929190620000b4565b506040518060400160405280600281526020017f504b000000000000000000000000000000000000000000000000000000000000815250600190805190602001906200009f929190620000b4565b50348015620000ad57600080fd5b5062000163565b828054600181600116156101000203166002900490600052602060002090601f016020900481019282601f10620000f757805160ff191683800117855562000128565b8280016001018555821562000128579182015b82811115620001275782518255916020019190600101906200010a565b5b5090506200013791906200013b565b5090565b6200016091905b808211156200015c57600081600090555060010162000142565b5090565b90565b6112e680620001736000396000f3fe608060405234801561001057600080fd5b50600436106100885760003560e01c806370a082311161005b57806370a082311461012957806395d89b4114610159578063b4b5b48f14610177578063d712b744146101a757610088565b806306fdde031461008d5780633db90825146100ab5780636352211e146100c95780636ecb2d8e146100f9575b600080fd5b6100956101d7565b6040516100a2919061107c565b60405180910390f35b6100b3610279565b6040516100c0919061103f565b60405180910390f35b6100e360048036036100de9190810190610c2e565b61032c565b6040516100f09190610fed565b60405180910390f35b610113600480360361010e9190810190610c05565b6103b1565b6040516101209190611061565b60405180910390f35b610143600480360361013e9190810190610c05565b61069d565b6040516101509190611179565b60405180910390f35b610161610755565b60405161016e919061107c565b60405180910390f35b610191600480360361018c9190810190610c2e565b6107f7565b60405161019e919061115e565b60405180910390f35b6101c160048036036101bc9190810190610c05565b61096d565b6040516101ce919061103f565b60405180910390f35b606060008054600181600116156101000203166002900480601f01602080910402602001604051908101604052809291908181526020018280546001816001161561010002031660029004801561026f5780601f106102445761010080835404028352916020019161026f565b820191906000526020600020905b81548152906001019060200180831161025257829003601f168201915b5050505050905090565b606060006001610287610ae3565b03905060006064821061029d57606482036102a0565b60005b905060606001828403016040519080825280602002602001820160405280156102e357816020015b6102d0610b03565b8152602001906001900390816102c85790505b50905060008290505b838111610322576102fc816107f7565b828483038151811061030a57fe5b602002602001018190525080806001019150506102ec565b5080935050505090565b600061033782610af0565b610376576040517f08c379a000000000000000000000000000000000000000000000000000000000815260040161036d906110fe565b60405180910390fd5b6003600083815260200190815260200160002060009054906101000a900473ffffffffffffffffffffffffffffffffffffffff169050919050565b60008073ffffffffffffffffffffffffffffffffffffffff168273ffffffffffffffffffffffffffffffffffffffff161415610422576040517f08c379a00000000000000000000000000000000000000000000000000000000081526004016104199061113e565b60405180910390fd5b60003390508073ffffffffffffffffffffffffffffffffffffffff168373ffffffffffffffffffffffffffffffffffffffff161415610496576040517f08c379a000000000000000000000000000000000000000000000000000000000815260040161048d906110be565b60405180910390fd5b60006104a0610ae3565b9050600260405180604001604052804281526020018473ffffffffffffffffffffffffffffffffffffffff16815250908060018154018082558091505090600182039060005260206000209060020201600090919290919091506000820151816000015560208201518160010160006101000a81548173ffffffffffffffffffffffffffffffffffffffff021916908373ffffffffffffffffffffffffffffffffffffffff160217905550505050836003600083815260200190815260200160002060006101000a81548173ffffffffffffffffffffffffffffffffffffffff021916908373ffffffffffffffffffffffffffffffffffffffff1602179055506001600460008673ffffffffffffffffffffffffffffffffffffffff1673ffffffffffffffffffffffffffffffffffffffff16815260200190815260200160002060008282540192505081905550600560008573ffffffffffffffffffffffffffffffffffffffff1673ffffffffffffffffffffffffffffffffffffffff1681526020019081526020016000208190806001815401808255809150509060018203906000526020600020016000909192909190915055507f403a5f9699f16eeb2e3fdd6ad7be2eb835468e8952f26168273c145f2d8f327c82858360405161068a93929190611008565b60405180910390a1600192505050919050565b60008073ffffffffffffffffffffffffffffffffffffffff168273ffffffffffffffffffffffffffffffffffffffff16141561070e576040517f08c379a00000000000000000000000000000000000000000000000000000000081526004016107059061109e565b60405180910390fd5b600460008373ffffffffffffffffffffffffffffffffffffffff1673ffffffffffffffffffffffffffffffffffffffff168152602001908152602001600020549050919050565b606060018054600181600116156101000203166002900480601f0160208091040260200160405190810160405280929190818152602001828054600181600116156101000203166002900480156107ed5780601f106107c2576101008083540402835291602001916107ed565b820191906000526020600020905b8154815290600101906020018083116107d057829003601f168201915b5050505050905090565b6107ff610b57565b61080882610af0565b610847576040517f08c379a000000000000000000000000000000000000000000000000000000000815260040161083e906110de565b60405180910390fd5b61084f610bab565b6002838154811061085c57fe5b9060005260206000209060020201604051806040016040529081600082015481526020016001820160009054906101000a900473ffffffffffffffffffffffffffffffffffffffff1673ffffffffffffffffffffffffffffffffffffffff1673ffffffffffffffffffffffffffffffffffffffff1681525050905060006003600085815260200190815260200160002060009054906101000a900473ffffffffffffffffffffffffffffffffffffffff169050604051806080016040528085815260200183600001518152602001836020015173ffffffffffffffffffffffffffffffffffffffff1681526020018273ffffffffffffffffffffffffffffffffffffffff1681525092505050919050565b606080600560008473ffffffffffffffffffffffffffffffffffffffff1673ffffffffffffffffffffffffffffffffffffffff1681526020019081526020016000208054806020026020016040519081016040528092919081815260200182805480156109f957602002820191906000526020600020905b8154815260200190600101908083116109e5575b505050505090506000815190506000811415610a4a576040517f08c379a0000000000000000000000000000000000000000000000000000000008152600401610a419061111e565b60405180910390fd5b606081604051908082528060200260200182016040528015610a8657816020015b610a73610b03565b815260200190600190039081610a6b5790505b50905060008090505b82811015610ad757610ab3848281518110610aa657fe5b60200260200101516107f7565b828281518110610abf57fe5b60200260200101819052508080600101915050610a8f565b50809350505050919050565b6000600280549050905090565b6000610afa610ae3565b82109050919050565b60405180608001604052806000815260200160008152602001600073ffffffffffffffffffffffffffffffffffffffff168152602001600073ffffffffffffffffffffffffffffffffffffffff1681525090565b60405180608001604052806000815260200160008152602001600073ffffffffffffffffffffffffffffffffffffffff168152602001600073ffffffffffffffffffffffffffffffffffffffff1681525090565b604051806040016040528060008152602001600073ffffffffffffffffffffffffffffffffffffffff1681525090565b600081359050610bea81611275565b92915050565b600081359050610bff8161128c565b92915050565b600060208284031215610c1757600080fd5b6000610c2584828501610bdb565b91505092915050565b600060208284031215610c4057600080fd5b6000610c4e84828501610bf0565b91505092915050565b6000610c638383610f7a565b60808301905092915050565b610c78816111e9565b82525050565b610c87816111e9565b82525050565b6000610c98826111a4565b610ca281856111c7565b9350610cad83611194565b8060005b83811015610cde578151610cc58882610c57565b9750610cd0836111ba565b925050600181019050610cb1565b5085935050505092915050565b610cf4816111fb565b82525050565b6000610d05826111af565b610d0f81856111d8565b9350610d1f818560208601611231565b610d2881611264565b840191505092915050565b6000610d406022836111d8565b91507f62616c616e636520717565727920666f7220746865207a65726f20616464726560008301527f73730000000000000000000000000000000000000000000000000000000000006020830152604082019050919050565b6000610da66012836111d8565b91507f67656520746f206f776e206164647265737300000000000000000000000000006000830152602082019050919050565b6000610de66020836111d8565b91507f6461746120717565727920666f72206e6f6e6578697374616e7420746f6b656e6000830152602082019050919050565b6000610e266021836111d8565b91507f6f776e657220717565727920666f72206e6f6e6578697374616e7420746f6b6560008301527f6e000000000000000000000000000000000000000000000000000000000000006020830152604082019050919050565b6000610e8c6022836111d8565b91507f746f6b656e7320717565727920666f72206e6f6e6578697374616e74206f776e60008301527f65720000000000000000000000000000000000000000000000000000000000006020830152604082019050919050565b6000610ef26017836111d8565b91507f67656520746f20746865207a65726f20616464726573730000000000000000006000830152602082019050919050565b608082016000820151610f3b6000850182610fcf565b506020820151610f4e6020850182610fcf565b506040820151610f616040850182610c6f565b506060820151610f746060850182610c6f565b50505050565b608082016000820151610f906000850182610fcf565b506020820151610fa36020850182610fcf565b506040820151610fb66040850182610c6f565b506060820151610fc96060850182610c6f565b50505050565b610fd881611227565b82525050565b610fe781611227565b82525050565b60006020820190506110026000830184610c7e565b92915050565b600060608201905061101d6000830186610c7e565b61102a6020830185610c7e565b6110376040830184610fde565b949350505050565b600060208201905081810360008301526110598184610c8d565b905092915050565b60006020820190506110766000830184610ceb565b92915050565b600060208201905081810360008301526110968184610cfa565b905092915050565b600060208201905081810360008301526110b781610d33565b9050919050565b600060208201905081810360008301526110d781610d99565b9050919050565b600060208201905081810360008301526110f781610dd9565b9050919050565b6000602082019050818103600083015261111781610e19565b9050919050565b6000602082019050818103600083015261113781610e7f565b9050919050565b6000602082019050818103600083015261115781610ee5565b9050919050565b60006080820190506111736000830184610f25565b92915050565b600060208201905061118e6000830184610fde565b92915050565b6000819050602082019050919050565b600081519050919050565b600081519050919050565b6000602082019050919050565b600082825260208201905092915050565b600082825260208201905092915050565b60006111f482611207565b9050919050565b60008115159050919050565b600073ffffffffffffffffffffffffffffffffffffffff82169050919050565b6000819050919050565b60005b8381101561124f578082015181840152602081019050611234565b8381111561125e576000848401525b50505050565b6000601f19601f8301169050919050565b61127e816111e9565b811461128957600080fd5b50565b61129581611227565b81146112a057600080fd5b5056fea365627a7a7231582025cb1ab711c9742cfbcd6a81aa5ee5aa4acef748a25b3d5fda30a27db7f170af6c6578706572696d656e74616cf564736f6c63430005100040",
  "source": "// SPDX-License-Identifier: MIT\npragma solidity <0.9.0;\npragma experimental ABIEncoderV2;\n\ncontract PKToken {\n  struct PK {\n    uint timestamp;\n    address from;\n  }\n  struct PKData {\n    uint id;\n    uint timestamp;\n    address from;\n    address to;\n  }\n  event Gee(address from, address to, uint tokenID);\n  event Log(uint tokenID);\n\n  string private _name = \"PoesKlap\";\n  string private _symbol = \"PK\";\n\n  PK[] private _tokens;\n  mapping (uint => address) private _owners;\n  mapping (address => uint) private _balances;\n  mapping (address => uint[]) private _ownersTokens;\n\n  function gee(address to) public returns (bool) {\n    require(to != address(0), \"gee to the zero address\");\n    address from = msg.sender;\n    require(to != from, \"gee to own address\");\n    uint tokenID = _tokensCount();\n\n    _tokens.push(PK({\n      timestamp: block.timestamp,\n      from: from\n    }));\n    _owners[tokenID] = to;\n    _balances[to] += 1;\n    _ownersTokens[to].push(tokenID);\n\n    emit Gee(from, to, tokenID);\n    return true;\n  }\n\n  function balanceOf(address owner) public view returns (uint) {\n    require(owner != address(0), \"balance query for the zero address\");\n    return _balances[owner];\n  }\n\n  function ownerOf(uint tokenID) public view returns (address) {\n    require(_tokenExists(tokenID), \"owner query for nonexistant token\");\n    return _owners[tokenID];\n  }\n\n  function name() public view returns (string memory) {\n    return _name;\n  }\n\n  function symbol() public view returns (string memory) {\n    return _symbol;\n  }\n\n  function tokenData(uint tokenID) public view returns (PKData memory) {\n    require(_tokenExists(tokenID), \"data query for nonexistant token\");\n\n    PK memory token = _tokens[tokenID];\n    address owner = _owners[tokenID];\n\n    return PKData({\n      id: tokenID,\n      timestamp: token.timestamp,\n      from: token.from,\n      to: owner\n    });\n  }\n\n  function ownersTokens(address owner) public view returns (PKData[] memory) {\n    uint[] memory tokenIDs = _ownersTokens[owner];\n    uint balance = tokenIDs.length;\n    require(balance != 0, \"tokens query for nonexistant owner\");\n\n    PKData[] memory out = new PKData[](balance);\n    for (uint i = 0; i < balance; i++) {\n      out[i] = tokenData(tokenIDs[i]);\n    }\n\n    return out;\n  }\n\n  function last100() public view returns (PKData[] memory) {\n    uint end = _tokensCount() - 1;\n    uint start = end < 100 ? 0 : end - 100;\n\n    PKData[] memory out = new PKData[](end-start+1);\n    for (uint i = start; i <= end; i++) {\n      out[i-start] = tokenData(i);\n    }\n\n    return out;\n  }\n\n  function _tokenExists(uint tokenID) private view returns (bool) {\n    return tokenID < _tokensCount();\n  }\n\n  function _tokensCount() private view returns (uint) {\n    return _tokens.length;\n  }\n}\n",
  "sourcePath": "/home/angus/Documents/ethereum/poesklap/contracts/PKToken.sol",
  "compiler": {
    "name": "solc",
    "version": "0.5.16+commit.9c3226ce.Emscripten.clang"
  },
  "schemaVersion": "3.4.1",
  "updatedAt": "2021-06-27T02:41:08.996Z",
  "networkType": "ethereum",
  "devdoc": {
    "methods": {}
  },
  "userdoc": {
    "methods": {}
  }
}